:100000000C9460010C9484010C9484010C94840180
:100010000C9484010C9484010C9484010C9484014C
:100020000C9484010C9484010C9484010C9484013C
:100030000C9484010C9484010C9484010C9484012C
:100040000C9484010C9484010C9484010C9484011C
:100050000C9484010C9484010C9484010C942E0360
:100060000C9484010C9484010C9484010C948401FC
:100070000C9484010C9484010C9484010C948401EC
:100080000C9484010C9484010C9484010C948401DC
:100090000C9484010C9484010C9484010C948401CC
:1000A0000C9484010C9484010C9484010C948401BC
:1000B0000C9484010C9484010C9484010C948401AC
:1000C0000C9484010C9484010C9484010C9484019C
:1000D0000C9484010C9484010C9484010C9484018C
:1000E0000C948401B501B801A701AB01AF01EF0188
:1000F000BC01C001C601CA01CE01D401D801DC0196
:10010000EF01E201E601EA0169026E0273027D027B
:100110008702000391029902A102AB02B502BF025D
:10012000CE02D8020003E202EC02F6020C94D801DF
:100130000C947D020C94A7010C94E2010C94000332
:100140000C94C0010C94E2020C94CA010C94CE01F0
:100150000C94E6010C94EA010C9446040C94990268
:100160000C94BF020C94EF010C94EC020C94F60278
:100170000C94B5020C94C6010C94A1020C94AF012E
:100180000C94D8020C94AB020C946E020C94DC011B
:100190000C9473020C94BC010C94D4010C94AB012C
:1001A0000C94CE020C9491020C94B5010C9469024B
:1001B0000C94B8010C948702000021002400270051
:1001C0002A002D0030003300010100000401070166
:1001D0000A0100002200250028002B002E0031001B
:1001E000340002010000050108010B0105050505A9
:1001F000070508080808020202020A0A080804049F
:1002000004040101010101010101030303030303CC
:100210000303040707070C0C0C0C0C0C0C0C02025B
:10022000020206060606060606060B0B0B0B0B0B58
:100230000B0B0102102020080810204010204080E5
:10024000020102010804020101020408102040809A
:100250008040201008040201800402018040201028
:100260000804020108040201010204081020408071
:10027000010204081020408000000A0B02090C0D46
:100280000E08070304010000000000000000000049
:10029000000000000000000000000000000000005E
:1002A000000000001211100000000000000000001B
:1002B00000000000000000000000000000004604F4
:1002C00011241FBECFEFD1E2DEBFCDBF00E00CBFD7
:1002D00022E0A0E0B2E001C01D92A931B207E1F72F
:1002E00011E0C0E6D1E000E006C021970109802FAF
:1002F000FE010E947D04CF35D10780E00807A9F7F1
:100300000E9478030C9485040C940000362F90E032
:10031000FC01E858FD4F4491FC01EE5CFD4F249137
:10032000FC01E451FE4F9491992309F46CC04423DD
:1003300009F455C050E0FA013197E231F10508F0B7
:100340004EC08827EE58FF4F8F4F0C947D0480914C
:1003500080008F7707C0809180008F7D03C08091DF
:100360008000877F809380003AC084B58F7702C079
:1003700084B58F7D84BD33C08091B0008F7703C07A
:100380008091B0008F7D8093B00029C08091900053
:100390008F7707C0809190008F7D03C0809190007F
:1003A000877F809390001BC08091A0008F7707C04B
:1003B0008091A0008F7D03C08091A000877F8093F3
:1003C000A0000DC0809120018F7707C0809120018F
:1003D0008F7D03C080912001877F80932001E92FCA
:1003E000F0E0EE0FFF1FEE52FE4FA591B4919FB7C4
:1003F000F894311104C08C912095282302C0EC910F
:100400002E2B2C939FBF0895CF93DF9390E0FC0198
:10041000EE5CFD4F2491FC01E451FE4F8491882352
:1004200061F190E0880F991FFC01E854FE4FC591DF
:10043000D491FC01EE52FE4FA591B491611109C017
:100440009FB7F8948881209582238883EC912E238E
:100450000BC0623061F49FB7F8948881322F3095D9
:1004600083238883EC912E2B2C939FBF06C08FB7DC
:10047000F894E8812E2B28838FBFDF91CF910895C8
:100480001F93CF93DF93182FEB0161E00E940402CA
:10049000209711F460E004C0CF3FD10539F461E04A
:1004A000812FDF91CF911F910C948601E12FF0E015
:1004B000E858FD4FE4918E2F90E0FC013197E23136
:1004C000F10508F09DC08827EC57FF4F8F4F0C9423
:1004D0007D0484B5806884BDC7BD97C084B5806243
:1004E00084BDC8BD92C080918000806880938000E8
:1004F000D0938900C093880088C08091800080627A
:1005000080938000D0938B00C0938A007EC080913E
:100510008000886080938000D0938D00C0938C0011
:1005200074C08091B00080688093B000C093B30025
:100530006CC08091B00080628093B000C093B40022
:1005400064C080919000806880939000D09399005F
:10055000C09398005AC08091900080628093900070
:10056000D0939B00C0939A0050C080919000886007
:1005700080939000D0939D00C0939C0046C08091D2
:10058000A00080688093A0008091A0008F7B809362
:10059000A000D093A900C093A80037C08091A0000C
:1005A00080628093A000D093AB00C093AA002DC0BE
:1005B0008091A00088608093A000D093AD00C0938C
:1005C000AC0023C080912001806880932001D093EB
:1005D0002901C093280119C0809120018062809375
:1005E0002001D0932B01C0932A010FC080912001DC
:1005F000886080932001D0932D01C0932C0105C009
:10060000C038D1050CF04BCF45CFDF91CF911F9172
:1006100008953FB7F8948091150290911602A09129
:100620001702B091180226B5A89B05C02F3F19F0FC
:100630000196A11DB11D3FBFBA2FA92F982F882762
:10064000820F911DA11DB11DBC01CD0142E0660FBD
:10065000771F881F991F4A95D1F708951F920F920F
:100660000FB60F9211242F933F938F939F93AF93C5
:10067000BF938091110290911202A0911302B09148
:1006800014023091100223E0230F2D3720F401963D
:10069000A11DB11D05C026E8230F0296A11DB11DA5
:1006A000209310028093110290931202A0931302E0
:1006B000B09314028091150290911602A091170236
:1006C000B09118020196A11DB11D8093150290935F
:1006D0001602A0931702B0931802BF91AF919F9199
:1006E0008F913F912F910F900FBE0F901F901895F3
:1006F000789484B5826084BD84B5816084BD85B5FD
:10070000826085BD85B5816085BD80916E00816008
:1007100080936E00109281008091810082608093AE
:1007200081008091810081608093810080918000B0
:100730008160809380008091B10084608093B100DB
:100740008091B00081608093B000809191008260C0
:1007500080939100809191008160809391008091BD
:1007600090008160809390008091A10082608093CE
:10077000A1008091A10081608093A1008091A000E0
:1007800081608093A000809121018260809321018B
:1007900080912101816080932101809120018160FD
:1007A0008093200180917A00846080937A00809108
:1007B0007A00826080937A0080917A0081608093D1
:1007C0007A0080917A00806880937A001092C1004C
:1007D00000E010E0C0E0D0E060E0809104020E9400
:1007E0008601BE01809106020E944002BE018091F6
:1007F00008020E94400260E080910A020E94860185
:100800002196CF3FD10541F760E0809104020E941C
:10081000860160E0809106020E94860160E080917E
:1008200008020E94860160E080910A020E9486010F
:100830000E9409034B015C0184EFC82EDD24D39490
:10084000E12CF12C0E940903DC01CB0188199909E4
:10085000AA09BB09883E9340A105B10598F321E0A0
:10086000C21AD108E108F10888EE880E83E0981ECC
:10087000A11CB11CC114D104E104F10419F7011544
:10088000110509F4A7CF0E940000A4CFCF93DF93F6
:1008900061E089E00E940402C0E0D2E089E090E0DB
:1008A0009D838C8361E08AE00E9404028AE090E0EC
:1008B0009F838E8361E08BE00E9404028BE090E0D6
:1008C0009987888761E08CE00E9404028CE090E0C8
:1008D0009B878A8761E086E10E94040286E190E0BE
:1008E0009D878C8760E088E10E94040288E190E0A7
:1008F0009F878E87DF91CF910895EE0FFF1F881F8E
:0E0900008BBF0790F691E02D1994F894FFCF6D
:00000001FF
